:0A0A5500000102020303040405057A
:1006F1005210001201000200000040B40404210065
:1007010006010203014A10120A060002000000401D
:10071100010059101C09021234010100C00309042F
:10072100000001FF000002070582020002004410E0
:10073100360403090448103A080354004B005200E0
:100741006020104220034D005000450047002D005D
:100751005400530020002D0044006F006E0067001C
:100761006C00650052106212034100310032003307
:10077100003400350036005400C100C101C182C1FE
:0D07810003C10408330018BD5DBF780000FF
:10062500E4F508F509120457C280D2B590E65D7469
:10063500FFF090E65FF05391EF90E680E054F7F01D
:10064500E04402F0C2B17FC87E00120A39D2B17F00
:10065500C87E00120A39C2B574FFF50CF50D850C7C
:100665000A850D0B300305C203120080E50B450A10
:100675007050E5114510700F90E6A7E030E104C217
:10068500808006B2808002D280E50F650D7004E59A
:100695000E650C6016E51145106006E50F450E70F8
:1006A5000AE511B50D09E510B50C04C2818002D229
:1006B50081850C0A850D0BE4F510F511F50EF50F86
:1006C50080A2E50B150B7002150A90E6A7E030E055
:1006D500080511E5117002051090E6A7E030E284E7
:0C06E500050FE50F7002050E02066922E9
:1000800090E6B8E0546024C0700302034524406049
:100090000302034A90E6B9E070030201A81470035A
:1000A00002024324FE70030202D124FB700302010A
:1000B0009714700302018E1470030201741470030C
:1000C0000201852405600302033C90E6BBE024FEA8
:1000D000602B14604224FD601714602E2406600318
:1000E00002016A741090E6B3F07400A3F0020351A9
:1000F000741090E6B3F07412A3F0020351741090E0
:10010000E6B3F0741CA3F0020351741090E6B3F050
:10011000741CA3F002035190E6BAE014601214605C
:100120001714601C24037020752710752836801D55
:1001300075271075283A8015752710752842800D8F
:100140007527107528628005E4F527F528E5284510
:1001500027600DE52790E6B3F0E528A3F0020351F0
:1001600090E6A0E04401F002035190E6A0E04401D3
:10017000F002035190E740E52AF0E490E68AF0A30C
:1001800004F002035190E6BAE0F52A02035190E62A
:10019000BAE0F52902035190E740E529F0E490E642
:1001A0008AF0A304F002035190E6B8E0247F6029AE
:1001B00014603824026003020239A201E433FF25EF
:1001C000E0FFA202E4334F90E740F0E4A3F090E6B2
:1001D0008AF0A37402F0020351E490E740F0A3F028
:1001E00090E68AF0A37402F002035190E6BCE0545A
:1001F0007EFF7E00E0D3948040067C007D01800479
:100200007C007D00EC4EFEED4F2455F582740A3ED5
:10021000F583E493FF3395E0FEEF24A1FFEE34E68F
:100220008F82F583E0540190E740F0E4A3F090E67C
:100230008AF0A37402F002035190E6A0E04401F0BA
:1002400002035190E6B8E024FE601D240260030220
:10025000035190E6BAE0B40105C20102035190E6F1
:10026000A0E04401F002035190E6BAE0705990E634
:10027000BCE0547EFF7E00E0D3948040067C007D8D
:100280000180047C007D00EC4EFEED4F2455F5828C
:10029000740A3EF583E493FF3395E0FEEF24A1FF5B
:1002A000EE34E68F82F583E054FEF090E6BCE05435
:1002B00080FF131313541FFFE0540F2F90E683F0B9
:1002C000E04420F002035190E6A0E04401F0020374
:1002D0005190E6B8E024FE601B2402705690E6BA06
:1002E000E0B40107300004D201806690E6A0E0444B
:1002F00001F0805D90E6BCE0547EFF7E00E0D39488
:100300008040067C007D0180047C007D00EC4EFE78
:10031000ED4F2455F582740A3EF583E493FF33953F
:10032000E0FEEF24A1FFEE34E68F82F583E0440186
:10033000F0801E90E6A0E04401F0801590E6A0E079
:100340004401F0800C120554400790E6A0E04401FF
:09035000F090E6A0E04480F022E8
:10055400E4F51490E6BAE0FF90E6BCE0F51390E60B
:10056400BEE0F51290E6B8E064C07052A3E0244AFD
:10057400602924FE601424F57033AD121208EA4099
:1005840004E4F512228512148025E5126402701F1A
:1005940090E740F0A3F08512148014E5135407FF8C
:1005A4002433F8E690E740F07514028002C322E594
:1005B400146069E490E68AF0A3E514F0805E90E6A6
:1005C400B8E064407056A3E02476605024CB604CBD
:1005D40024FD602324FE60272412703E90E740E04F
:1005E40064307038A3E06004C2B08002D2B07F0AE5
:1005F4007E00120A398025AF12120999401E2290FA
:10060400E740E0B40116C2B17F0A7E00120A39D273
:10061400B17F0A7E00120A398002C322000000D38F
:0106240022B3
:1004570075B20375800375B52375B020120A497507
:100467008910E4F58CF58AD28CD2A9F5277528195D
:1004770090101EE528F0E527A3F090E6007410F031
:10048700000000E4F58E00000090E60B7403F00016
:10049700000090E601F000000090E6047480F00090
:1004A70000007482F00000007484F000000074867D
:1004B700F00000007488F0000000E4F000000090F5
:1004C700E602F0000000A3F000000090E63074C1DF
:1004D700F0000000E4A3F000000090E6707440F024
:1004E70000000090E6097404F000000090E6127422
:1004F700E0F0000000E4A3F0000000A3F00000001B
:10050700A3F000000090E6187408F000000090E6E1
:10051700207402F0000000E4A3F000000090E61948
:10052700F0000000A3F0000000A3F000000090E638
:1005370068F090E660F090E6B504F090E65EE0447F
:0D05470002F090E65C7411F0D2E8D2AF2211
:030043000208951B
:10089500C0E0C083C082C0D090E666E024F060333B
:1008A50024EC60252424703190E65D7401F090E617
:1008B500B8E0B4401090E6BEE0600A90E68BE4F044
:1008C5000000008014D203801090E65F7402F0D21D
:1008D50003800690E65D7410F05391EFD0D0D0827E
:0508E500D083D0E032D9
:03000B00020927C0
:10092700C0E0C0D0E52E2402F52EE4352DF52DE4E8
:10093700352CF52CE4352BF52BE530452F6008E5F4
:100947003015307002152FE53245316008E5321554
:0A0957003270021531D0D0D0E0322A
:100A3900EEC313F531EF13F532E532453170FA2281
:100A05008B168A178918AF1C151CEF6026AB1605C7
:100A150018E518AA177002051714F912081BFFAB81
:100A250019051BE51BAA1A7002051A14F9EF12081D
:040A35006180D322E7
:1008EA00EFC313FFED24FEF515D394465006EDC36E
:1008FA0094035002C3227A107B74AD1512096192D7
:10090A00057AE77942751901751AE7751B4285154B
:0D091A001C7B017A107974120A05A20522D7
:10099900AE0790E740E0FFC313FCEE24FEFDD394BD
:1009A90046400122751901751A10751B748D1C7B3F
:1009B900017AE77942120A05AF047A107B741209A9
:0609C900CF9205A20522F9
:0C0A4900E4F52690E67A7403F0D2E9226E
:1009CF00AC0790E678E04480F0EC25E0A3F07526C4
:1009DF00018D21AF03A9077522018A238924E4F52C
:1009EF0025E526600FB407F990E678E04440F075EE
:0609FF002609C322D322E9
:10096100AC0790E678E04480F0EC25E04401A3F088
:100971007526038D21AF03A9077522018A238924D6
:10098100E4F525E526600FB407F990E678E04440E8
:08099100F0752609C322D322F0
:03004B0002035954
:10035900C0E0C083C082C0D075D000C000C001C059
:1003690002C003C00790E678E030E206752606026F
:10037900044190E678E020E10CE526640260067508
:100389002607020441E52624FE605E14603624FE39
:10039900700302042A24FC700302043E240860034B
:1003A900020441AB22AA23A924AF2505258F827512
:1003B900830012083490E679F0E525652170797596
:1003C9002605807490E679E0AB22AA23A924852525
:1003D90082758300120873752602E521640170583D
:1003E90090E678E04420F0804FE52124FEB525070A
:1003F90090E678E04420F0E52114B5250D200407A6
:1004090090E678E04440F075260090E679E0AB226A
:10041900AA23A924852582758300120873052580DE
:1004290017300405752600800F90E678E04440F007
:1004390075260980037526005391DFD007D003D0B4
:0E04490002D001D000D0D0D082D083D0E032DB
:0300000002078F65
:0C078F00787FE4F6D8FD75813A0207D6A9
:10081B00BB010689828A83E0225002E722BBFE02DB
:09082B00E32289828A83E493220E
:10083400BB010CE58229F582E5833AF583E0225079
:1008440006E92582F8E622BBFE06E92582F8E222C3
:0D085400E58229F582E5833AF583E49322DD
:10086100BB010689828A83F0225002F722BBFE0176
:02087100F32270
:10087300F8BB010DE58229F582E5833AF583E8F0BB
:10088300225006E92582C8F622BBFE05E92582C867
:02089300F2224F
:10079B00020625E493A3F8E493A34003F68001F249
:1007AB0008DFF48029E493A3F85407240CC8C3335F
:1007BB00C4540F4420C8834004F456800146F6DF2E
:1007CB00E4800B01020408102040809006F1E47EC7
:1007DB00019360BCA3FF543F30E509541FFEE49323
:1007EB00A360010ECF54C025E060A840B8E493A3EA
:1007FB00FAE493A3F8E493A3C8C582C8CAC583CA15
:10080B00F0A3C8C582C8CAC583CADFE9DEE780BECC
:01078E00006A
:00000001FF
